S02700004F6E2064656D616E642054726166666963206C6967687420636F6E74726F6C2E737265637F
S11300000C942A000C9446010C943C000C943C0083
S11300100C943C000C9435010C943C000C943C0072
S11300200C943C000C943C000C943C000C94EC00AC
S11300300C943C000C943C000C943C000C943C004C
S11300400C943C000C943C000C943C000C943C003C
S11300500C943C0011241FBECFE5D8E0DEBFCDBF19
S113006020E0A0E6B0E001C01D92A636B207E1F799
S11300700E9496010C9496030C94000041E061E404
S113008080E00E949B0141E061E481E00E949B01C9
S113009041E061E482E00E949B0141E062E480E08F
S11300A00E949B0141E062E481E00E949B0141E0E7
S11300B062E482E00E949B0140E064E482E00E94EA
S11300C09B018FB780688FBF84B7816084BF84B77A
S11300D08D7F84BF8BB780648BBF89B7816089BFF4
S11300E089B7806489BF80E00E94EC0280E00E94AE
S11300F0410369EB83E00E94FF020895809162004E
S1130100843018F010926200F9CF813011F130F090
S1130110823099F1833009F44BC0F0CF61E480E080
S11301200E948B0161E481E00E948F0161E482E01E
S11301300E948F0162E480E00E948F0162E481E00A
S11301400E948F0162E482E00E948B0110926100A0
S1130150D5CF81E08093610061E480E00E948F014B
S113016061E482E00E948F0162E480E00E948F01DA
S113017062E482E00E948F01C1CF61E480E00E94CA
S11301808F0161E481E00E948F0161E482E00E94BA
S11301908B0162E480E00E948B0162E481E00E94B2
S11301A08F0162E482E00E948F0110926100A6CF69
S11301B081E08093610061E480E00E948F0161E44A
S11301C082E00E948B0162E480E00E948F0162E47D
S11301D082E00E948F0192CF1F920F920FB60F926E
S11301E011242F933F934F935F936F937F938F9338
S11301F09F93AF93BF93EF93FF93809165008031FA
S113020020F48F5F809365001FC08031E8F08091F7
S113021063008F5F8093630080916100813039F4C3
S113022061E40E94930162E481E00E949301809161
S11302306300853039F4809162008F5F809362009F
S11302401092630010926500FF91EF91BF91AF91FE
S11302509F918F917F916F915F914F913F912F91DA
S11302600F900FBE0F901F9018951F920F920FB60C
S11302700F9211248F93809164008F5F80936400A8
S11302808F910F900FBE0F901F9018951F920F9291
S11302900FB60F9211242F933F934F935F936F9355
S11302A07F938F939F93AF93BF93EF93FF9380912B
S11302B060008F5F80936000882339F08130D1F42F
S11302C069EB83E00E94540315C08091640081317E
S11302D058F480916200811107C08F5F809362009F
S11302E010926300109265000E94940310926400BF
S11302F010926000FF91EF91BF91AF919F918F9108
S11303007F916F915F914F913F912F910F900FBE0D
S11303100F901F90189541E00E942402089540E038
S11303200E94240208950E94AD0208950E943E0096
S11303300E947E00FDCF623451F118F4613441F023
S11303400895633409F442C0643409F45EC0089526
S1130350413069F44AB321E030E0B90102C0660FCC
S1130360771F8A95E2F7CB01842B8ABB089541114C
S11303706AC04AB321E030E0B90102C0660F771FBA
S11303808A95E2F7CB01809584238ABB0895413096
S113039069F447B321E030E0B90102C0660F771F6A
S11303A08A95E2F7CB01842B87BB089541114BC09A
S11303B047B321E030E0B90102C0660F771F8A9588
S11303C0E2F7CB018095842387BB0895413069F41B
S11303D044B321E030E0B90102C0660F771F8A956B
S11303E0E2F7CB01842B84BB089541112CC044B3A4
S11303F021E030E0B90102C0660F771F8A95E2F769
S1130400CB018095842384BB0895413069F441B3C2
S113041021E030E0B90102C0660F771F8A95E2F748
S1130420CB01842B81BB089541110DC041B321E060
S113043030E0B90102C0660F771F8A95E2F7CB015D
S11304408095842381BB0895623451F118F461349A
S113045041F00895633409F442C0643409F45EC081
S11304600895413069F44BB321E030E0B90102C092
S1130470660F771F8A95E2F7CB01842B8BBB089517
S113048041116AC04BB321E030E0B90102C0660FEC
S1130490771F8A95E2F7CB01809584238BBB08955F
S11304A0413069F448B321E030E0B90102C0660F7D
S11304B0771F8A95E2F7CB01842B88BB08954111FD
S11304C04BC048B321E030E0B90102C0660F771F8A
S11304D08A95E2F7CB018095842388BB0895413047
S11304E069F445B321E030E0B90102C0660F771F1B
S11304F08A95E2F7CB01842B85BB089541112CC06A
S113050045B321E030E0B90102C0660F771F8A9538
S1130510E2F7CB018095842385BB0895413069F4CB
S113052042B321E030E0B90102C0660F771F8A951B
S1130530E2F7CB01842B82BB089541110DC042B375
S113054021E030E0B90102C0660F771F8A95E2F717
S1130550CB018095842382BB08956234B1F018F4F2
S1130560613431F008956334E9F0643441F108955D
S11305704BB321E030E0B90102C0660F771F8A95C2
S1130580E2F7CB0184278BBB089548B321E030E028
S1130590B90102C0660F771F8A95E2F7CB01842761
S11305A088BB089545B321E030E0B90102C0660F6D
S11305B0771F8A95E2F7CB01842785BB089542B360
S11305C021E030E0B90102C0660F771F8A95E2F797
S11305D0CB01842782BB0895813041F028F082301A
S11305E041F0833049F0089513BE089580E483BF39
S11305F0089588E083BF089588E483BF089562BFA7
S11306008530F0F58230F9F028F4882341F0813008
S113061081F00895833009F1843049F1089583B756
S1130620816083BF83B78D7F83BF83B78B7F83BF95
S1130630089583B78E7F83BF83B7826083BF83B7F8
S11306408B7F83BF089583B7816083BF83B7826044
S113065083BF83B78B7F83BF089583B78E7F83BFA8
S113066083B78D7F83BF83B7846083BF089583B7C7
S1130670816083BF83B78D7F83BF83B7846083BF6B
S11306800895813041F028F0823041F0833049F000
S1130690089513BE089580E483BF089588E083BF5E
S11306A0089588E483BF089562BF8230F9F028F486
S11306B0882341F0813081F00895833009F184303A
S11306C049F1089585B5816085BD85B58D7F85BD6A
S11306D085B58B7F85BD089585B58E7F85BD85B530
S11306E0826085BD85B58B7F85BD089585B58160A4
S11306F085BD85B5826085BD85B58B7F85BD089533
S113070085B58E7F85BD85B58D7F85BD85B58460B6
S113071085BD089585B5816085BD85B58D7F85BD11
S113072085B5846085BD089515BC0895F894FFCF00
S9030000FC
